:1000000004308A006A2C00000A108A100A11820744
:1000100028340C34013406340C00D2326639E9330A
:1000200065396137E4370001E539F032F232000119
:100030000C000C00D2326639E93365396137E43798
:100040000001E539F032F23200010C000C00D2322E
:100050006639E93365396137E4370001E539F03253
:10006000F23200010C00EF210000D4326D383D0067
:10007000CD34EE3AF43773103A103100D4326D3883
:100080003D00CD34EE3AF43773103A103200D432DA
:100090006D383D00CD34EE3AF43773103A1033002A
:1000A0003930840083130008031964280130F800F4
:1000B000F701F70B5928F80B58284A30F700F70BCF
:1000C0005F286228800B56280800400EF039F700A0
:1000D0000F30060577048600000006146F2806100E
:1000E00008000608F700060E0F39F800080083160E
:1000F000061086100611831286100F30831606052F
:10010000F0388600831206150000061400007120E6
:100110007808C0000610000006140000712078085E
:10012000BF0006100F308316060586008312400EAE
:10013000F700F030F70577083F04F8007808BF00B3
:10014000BF1B7D283D1C86103D188614000006113B
:10015000000006103E0EBF000F30BF053F08C00074
:1001600065203E080F39BF00C000652008000F3031
:100170008316060586000610861006118312861067
:10018000061106100F30B90050200130AB002B08CB
:10019000033C031CD3280330C00065200530B900A0
:1001A0005020AB0AC7280230C00065200530B900D6
:1001B0005020AB012B08033C031CE7282B0804202C
:1001C000AC00BD012C08BE007720AB0ADA288A11EA
:1001D0000A12792C8E30F7002C08F8002B08F90051
:1001E000FA01F808031DFE287908F800F901083023
:1001F000F702F808031DFE28F70106290310F81B73
:100200000529F90DF80DF703FE28F8138A110A12D3
:10021000972C380803197929C0003C08031979295B
:10022000C00703181A297F30C002031C792903195B
:1002300079291E298130C007031879294008F70061
:10024000F801F901FA013908C400C4173A08C300DB
:100250003B08C2001830C000C101421C47293F08BA
:10026000FA07031C3929F90A031D3929F80A031969
:10027000C1173E08F907031C4029F80A0319C117E2
:100280003D08BA00BA173A08F8070318C117C10D9C
:10029000F80CF90CFA0CC40CC30CC20C0310C00B04
:1002A0002C290130F70703187929F81B5E29C40DA2
:1002B000FA0DF90DF80DF70303197929C41F6F29F9
:1002C000FA0A031D6F29F90A031D6F29F80A031D95
:1002D0006F29F80CF90CFA0CF70A03197929390877
:1002E000C1003D08C106C11F7729F8177D29F81301
:1002F0007D29F701F801F901FA0108003A0B81297B
:1003000084294030BB008529BB0101303902BB077D
:100310003B088038BC00BD013C08BE0077200800C7
:1003200083189529403084008313F701F801F901FF
:10033000FA01C001C101C201C3013F083E043D04EE
:100340003C040319D3292030C4000310B80DB90DA3
:10035000BA0DBB0DC00DC10DC20DC30D3F08430248
:10036000031DBC293E084202031DBC293D08410271
:10037000031DBC293C084002031CCD293C08C002D7
:100380003D08031C3D0FC1023E08031C3E0FC20284
:100390003F08031C3F0FC3020314F70DF80DF90DBE
:1003A000FA0DC40BA52940088000840A410880008A
:1003B000840A42088000840A430880000800380844
:1003C000073A0319ED290B3A0319F229063A0319E2
:1003D000FA29023A0319002A052A0130B900BA00A5
:1003E0007E210A2ABD010130BE0077200230B9000B
:1003F00050200A2A0130B9000230BA007E210A2AB0
:10040000BD011030BE0077200A2A0130BD00380837
:10041000BE00772008000408B0002F08B2000319BE
:100420002A2A2E08BB002D08BA002C08B9002B0878
:10043000B800BF01BE012030BD008230BC000921E0
:100440007A08AE007908AD007808AC007708AB00F8
:10045000B20B112A2E08BB002D08BA002C08B900D7
:100460002B08B8003808B63CB800FA013908BC00BF
:10047000B9170310B90CBA0CBB0CFA0CF90CF80C38
:10048000F70CB80B392ABC1F502AF709F809F909EB
:10049000FA09F70A0319F80A0319F90A0319FA0AFB
:1004A0007A08AE007908AD007808AC007708AB0098
:1004B000AE1F672AB003B016AB09AC09AD09AE098F
:1004C000AB0A0319AC0A0319AD0A0319AE0A3B3093
:1004D000B7009A30B600CA30B500B4010A30B20095
:1004E0002F080319B00A83142B30840083132E08BD
:1004F000BB002D08BA002C08B9002B08B80037083B
:10050000BF003608BE003508BD003408BC0090218D
:100510007808F708031D9F2A2F0A320203199F2A21
:1005200030080319A12A0F3932020319992A031836
:10053000D12AB01BD12A301BA12A2030CD2A20304D
:10054000B005B01EAF2AB0122F08031DB003770804
:10055000B0002D30B800DF213008F700B0012F08BF
:100560003202031DBD2A7708B0002E30B800DF210B
:100570003008F7002030B00500303030B01ECD2AF2
:10058000B0122F08031DB0037708B0002D30B8005B
:10059000DF213008F700B0013030F7077708B800E6
:1005A000DF2183103708BB003608BA003508B900D0
:1005B0003408B800BF01BE01BD010A30BC00902163
:1005C0007A08B7007908B6007808B5007708B40053
:1005D000B20B732A8A110A12D22C0B08AD008B13AE
:1005E000831603178C170C140000000083120313EA
:1005F0008C1B8B1703170C087F390319412B03132E
:10060000AD0003170D080313AE0003170F08031303
:10061000AF002D08B800DF212E0803178D0003134B
:100620002F0803178F0003130B08B0008B138316DA
:1006300003178C170C1400000000831203138C1B8B
:100640008B1703170C0D0E0D7F390319412B031364
:10065000AD0003170D080313AE0003170F080313B3
:10066000AF002D08B800DF212E0803178D000313FB
:100670002F0803178F008D0A03198F0A0313ED2A21
:100680000317031308003008B7003408B706B71F74
:100690004E2B03110310B01B0314812B3008B7003D
:1006A0003308B8002F08B80203195C2BB71F812B41
:1006B0000308013A8300812B3408B8003008B802DF
:1006C0000319682BB71F812B0308013A8300812B84
:1006D0003508B8003108B8020319742BB71F812BF5
:1006E0000308013A8300812B3608B8003208B802AB
:1006F0000319802BB71F812B0308013A8300812B3C
:10070000031008002B08003A03198D2B013A031936
:10071000D62B033A03191F2C672C201020088316B0
:100720008700831207140330B9000130BA007E211C
:10073000AC012C081E3C031CC82B0C3003178D0089
:1007400000308F000313ED22C830B9005020033071
:10075000B9000130BA007E210D3003178D00003042
:100760008F000313ED220530B9000230BA007E215C
:10077000143003178D0000308F000313ED22073073
:10078000AD00C830B9005020AD0BC12BAC0A992B7D
:1007900020102008831687008312071018300317D3
:1007A0008D0000308F000313ED22672C20102008ED
:1007B00083168700831207140330B9000130BA0092
:1007C0007E21AC012C083C3C031C112C1930031772
:1007D0008D0000308F000313ED22C830B900502087
:1007E0000330B9000130BA007E211A3003178D00A2
:1007F00000308F000313ED220530B9000230BA003B
:100800007E21213003178D0000308F000313ED226D
:100810000730AD00C830B9005020AD0B0A2CAC0A2F
:10082000E22B201020088316870083120710253042
:1008300003178D0000308F000313ED22672C20106A
:10084000200883168700831207140330B900013093
:10085000BA007E21AC012C085A3C031C5A2C2630CD
:1008600003178D0000308F000313ED22C830B9004C
:1008700050200330B9000130BA007E212730031721
:100880008D0000308F000313ED220530B9000230D7
:10089000BA007E212E3003178D0000308F00031325
:1008A000ED220730AD00C830B9005020AD0B532CFD
:1008B000AC0A2B2C20102008831687008312071007
:1008C000323003178D0000308F000313ED228A11A0
:1008D0000A12BF2D03081F398300FF30A0008316C2
:1008E0001F149F141F159F11831303308312AA0036
:1008F000B7281F179F1783169F1783121F1483167D
:100900001F109F141F159F150030F80083121F0839
:10091000C73978049F001F151F198C2C1E08FA0078
:1009200083161E088312AB001E08AC00EA287A0862
:10093000A8007908A7007808A6007708A5001F106E
:100940002808BB002708BA002608B9002508B80007
:100950007130BF003D30BE007A30BD007D30BC003C
:1009600009217A08A4007908A3007808A200770872
:10097000A1000830B9000130BA007E210230AB007E
:100980009630B9005020AB0BC02C413084002408B5
:10099000AE002308AD002208AC002108AB000130F6
:1009A000AF000B2A0C30B9000130BA007E21333081
:1009B00003178D0000308F000313ED222808BB00C1
:1009C0002708BA002608B9002508B8007130BF0012
:1009D0003D30BE007A30BD007D30BC0009217A0870
:1009E000AE007908AD007808AC007708AB00B20122
:1009F000B101B0018130AF002E08B6002D08B5005E
:100A00002C08B4002B08B30043230318092D031D41
:100A10000F2DA01020088316870083128714280842
:100A2000BB002708BA002608B9002508B8007130B5
:100A3000BF003D30BE007A30BD007D30BC000921D2
:100A40007A08AE007908AD007808AC007708AB00F2
:100A50002E08B2002D08B1002C08B0002B08AF0002
:100A6000B601B501B4018130B3004323031C3E2D10
:100A7000A010200883168700831287108316851420
:100A80008312851C4A2DA90A6430B90050200C300D
:100A9000B800DF2101302A0229020319512D031861
:100AA000A901290803195B2D013A0319792D033A8D
:100AB0000319972DB42D0330B9000130BA007E21FF
:100AC000353003178D0000308F000313ED22033003
:100AD000B9000230BA007E21383003178D00003093
:100AE0008F000313ED220330B9000230BA007E21DB
:100AF000B42D0330B9000130BA007E213E30031717
:100B00008D0000308F000313ED220330B900023056
:100B1000BA007E21413003178D0000308F0003138F
:100B2000ED220330B9000230BA007E21B42D03302B
:100B3000B9000130BA007E21473003178D00003024
:100B40008F000313ED220330B9000230BA007E217A
:100B50004A3003178D0000308F000313ED2203305D
:100B6000B9000230BA007E21831605158312051DD7
:100B7000BF2D6430B90050202908AB00822B792C9E
:020B8000630010
:02400E00393F38
:00000001FF
;PIC16F876
;CRC=88B8  CREATED="01-oct-16 20:08"
